{
    "_format": "hh-sol-artifact-1",
    "contractName": "Attacker",
    "sourceName": "contracts/Attacker.sol",
    "abi": [
        {
            "inputs": [],
            "name": "callWithMsgValue",
            "outputs": [],
            "stateMutability": "payable",
            "type": "function"
        },
        {
            "inputs": [],
            "name": "callWithoutMsgValue",
            "outputs": [],
            "stateMutability": "nonpayable",
            "type": "function"
        },
        {
            "inputs": [],
            "name": "calledContract",
            "outputs": [
                {
                    "internalType": "address",
                    "name": "",
                    "type": "address"
                }
            ],
            "stateMutability": "view",
            "type": "function"
        },
        {
            "inputs": [],
            "name": "calledData",
            "outputs": [
                {
                    "internalType": "bytes",
                    "name": "",
                    "type": "bytes"
                }
            ],
            "stateMutability": "view",
            "type": "function"
        },
        {
            "inputs": [],
            "name": "count",
            "outputs": [
                {
                    "internalType": "uint256",
                    "name": "",
                    "type": "uint256"
                }
            ],
            "stateMutability": "view",
            "type": "function"
        },
        {
            "inputs": [],
            "name": "enter",
            "outputs": [
                {
                    "internalType": "bool",
                    "name": "",
                    "type": "bool"
                }
            ],
            "stateMutability": "view",
            "type": "function"
        },
        {
            "inputs": [
                {
                    "internalType": "address",
                    "name": "_calledContract",
                    "type": "address"
                },
                {
                    "internalType": "bytes",
                    "name": "_calledData",
                    "type": "bytes"
                }
            ],
            "name": "setData",
            "outputs": [],
            "stateMutability": "nonpayable",
            "type": "function"
        },
        {
            "stateMutability": "payable",
            "type": "receive"
        }
    ],
    "bytecode": "0x6080604052600060035534801561001557600080fd5b50610b0e806100256000396000f3fe6080604052600436106100745760003560e01c8063b1d830b91161004e578063b1d830b9146101ae578063e97dcb62146101d9578063ecec2d1614610204578063f9241fe61461022d5761015d565b806306661abd1461016257806370b4b99a1461018d578063af34e3ca146101a45761015d565b3661015d57600260009054906101000a900460ff1661015b57600360008154809291906100a090610a09565b91905055506001600260006101000a81548160ff02191690831515021790555060008060009054906101000a900473ffffffffffffffffffffffffffffffffffffffff1673ffffffffffffffffffffffffffffffffffffffff1660016040516101099190610845565b6000604051808303816000865af19150503d8060008114610146576040519150601f19603f3d011682016040523d82523d6000602084013e61014b565b606091505b505090508061015957600080fd5b505b005b600080fd5b34801561016e57600080fd5b50610177610258565b60405161018491906108f4565b60405180910390f35b34801561019957600080fd5b506101a261025e565b005b6101ac610330565b005b3480156101ba57600080fd5b506101c3610403565b6040516101d0919061085c565b60405180910390f35b3480156101e557600080fd5b506101ee610427565b6040516101fb9190610877565b60405180910390f35b34801561021057600080fd5b5061022b6004803603810190610226919061063c565b61043a565b005b34801561023957600080fd5b506102426104ac565b60405161024f9190610892565b60405180910390f35b60035481565b60008060009054906101000a900473ffffffffffffffffffffffffffffffffffffffff1673ffffffffffffffffffffffffffffffffffffffff1660016040516102a79190610845565b6000604051808303816000865af19150503d80600081146102e4576040519150601f19603f3d011682016040523d82523d6000602084013e6102e9565b606091505b505090508061032d576040517f08c379a0000000000000000000000000000000000000000000000000000000008152600401610324906108b4565b60405180910390fd5b50565b60008060009054906101000a900473ffffffffffffffffffffffffffffffffffffffff1673ffffffffffffffffffffffffffffffffffffffff1634600160405161037a9190610845565b60006040518083038185875af1925050503d80600081146103b7576040519150601f19603f3d011682016040523d82523d6000602084013e6103bc565b606091505b5050905080610400576040517f08c379a00000000000000000000000000000000000000000000000000000000081526004016103f7906108d4565b60405180910390fd5b50565b60008054906101000a900473ffffffffffffffffffffffffffffffffffffffff1681565b600260009054906101000a900460ff1681565b826000806101000a81548173ffffffffffffffffffffffffffffffffffffffff021916908373ffffffffffffffffffffffffffffffffffffffff16021790555081816001919061048b92919061053a565b506000600260006101000a81548160ff021916908315150217905550505050565b600180546104b9906109d7565b80601f01602080910402602001604051908101604052809291908181526020018280546104e5906109d7565b80156105325780601f1061050757610100808354040283529160200191610532565b820191906000526020600020905b81548152906001019060200180831161051557829003601f168201915b505050505081565b828054610546906109d7565b90600052602060002090601f01602090048101928261056857600085556105af565b82601f1061058157803560ff19168380011785556105af565b828001600101855582156105af579182015b828111156105ae578235825591602001919060010190610593565b5b5090506105bc91906105c0565b5090565b5b808211156105d95760008160009055506001016105c1565b5090565b6000813590506105ec81610ac1565b92915050565b60008083601f84011261060457600080fd5b8235905067ffffffffffffffff81111561061d57600080fd5b60208301915083600182028301111561063557600080fd5b9250929050565b60008060006040848603121561065157600080fd5b600061065f868287016105dd565b935050602084013567ffffffffffffffff81111561067c57600080fd5b610688868287016105f2565b92509250509250925092565b61069d8161095c565b82525050565b6106ac8161096e565b82525050565b60006106bd82610924565b6106c7818561092f565b93506106d78185602086016109a4565b6106e081610ab0565b840191505092915050565b600081546106f8816109d7565b6107028186610940565b9450600182166000811461071d576001811461072e57610761565b60ff19831686528186019350610761565b6107378561090f565b60005b838110156107595781548189015260018201915060208101905061073a565b838801955050505b50505092915050565b6000610777602d8361094b565b91507f41747461636b65723a3a63616c6c576974686f75744d736756616c75653a657260008301527f726f72207768656e2063616c6c000000000000000000000000000000000000006020830152604082019050919050565b60006107dd602a8361094b565b91507f41747461636b65723a3a63616c6c576974684d736756616c75653a6572726f7260008301527f207768656e2063616c6c000000000000000000000000000000000000000000006020830152604082019050919050565b61083f8161099a565b82525050565b600061085182846106eb565b915081905092915050565b60006020820190506108716000830184610694565b92915050565b600060208201905061088c60008301846106a3565b92915050565b600060208201905081810360008301526108ac81846106b2565b905092915050565b600060208201905081810360008301526108cd8161076a565b9050919050565b600060208201905081810360008301526108ed816107d0565b9050919050565b60006020820190506109096000830184610836565b92915050565b60008190508160005260206000209050919050565b600081519050919050565b600082825260208201905092915050565b600081905092915050565b600082825260208201905092915050565b60006109678261097a565b9050919050565b60008115159050919050565b600073ffffffffffffffffffffffffffffffffffffffff82169050919050565b6000819050919050565b60005b838110156109c25780820151818401526020810190506109a7565b838111156109d1576000848401525b50505050565b600060028204905060018216806109ef57607f821691505b60208210811415610a0357610a02610a81565b5b50919050565b6000610a148261099a565b91507fffffffffffffffffffffffffffffffffffffffffffffffffffffffffffffffff821415610a4757610a46610a52565b5b600182019050919050565b7f4e487b7100000000000000000000000000000000000000000000000000000000600052601160045260246000fd5b7f4e487b7100000000000000000000000000000000000000000000000000000000600052602260045260246000fd5b6000601f19601f8301169050919050565b610aca8161095c565b8114610ad557600080fd5b5056fea26469706673582212200cd7ebc08510b1fef761cdf0d03ebf3fff52d05cbdf02e6d78025e5dbe72bcdc64736f6c63430008000033",
    "linkReferences": {},
    "deployedLinkReferences": {}
}